{
  "_format": "hh-sol-artifact-1",
  "contractName": "Voting",
  "sourceName": "contracts/Voting.sol",
  "abi": [
    {
      "inputs": [
        {
          "internalType": "address",
          "name": "owner",
          "type": "address"
        }
      ],
      "name": "OwnableInvalidOwner",
      "type": "error"
    },
    {
      "inputs": [
        {
          "internalType": "address",
          "name": "account",
          "type": "address"
        }
      ],
      "name": "OwnableUnauthorizedAccount",
      "type": "error"
    },
    {
      "anonymous": false,
      "inputs": [
        {
          "indexed": false,
          "internalType": "address",
          "name": "_address",
          "type": "address"
        }
      ],
      "name": "Authorized",
      "type": "event"
    },
    {
      "anonymous": false,
      "inputs": [
        {
          "indexed": false,
          "internalType": "uint256",
          "name": "propositionID",
          "type": "uint256"
        },
        {
          "indexed": false,
          "internalType": "string",
          "name": "description",
          "type": "string"
        },
        {
          "indexed": false,
          "internalType": "uint256",
          "name": "voteCount",
          "type": "uint256"
        }
      ],
      "name": "NewProposal",
      "type": "event"
    },
    {
      "anonymous": false,
      "inputs": [
        {
          "indexed": true,
          "internalType": "address",
          "name": "previousOwner",
          "type": "address"
        },
        {
          "indexed": true,
          "internalType": "address",
          "name": "newOwner",
          "type": "address"
        }
      ],
      "name": "OwnershipTransferred",
      "type": "event"
    },
    {
      "inputs": [
        {
          "internalType": "address",
          "name": "_address",
          "type": "address"
        }
      ],
      "name": "addInBlacklist",
      "outputs": [],
      "stateMutability": "nonpayable",
      "type": "function"
    },
    {
      "inputs": [
        {
          "internalType": "address",
          "name": "_address",
          "type": "address"
        }
      ],
      "name": "addInWhitelist",
      "outputs": [],
      "stateMutability": "nonpayable",
      "type": "function"
    },
    {
      "inputs": [
        {
          "internalType": "string",
          "name": "_description",
          "type": "string"
        }
      ],
      "name": "addProposal",
      "outputs": [],
      "stateMutability": "nonpayable",
      "type": "function"
    },
    {
      "inputs": [
        {
          "internalType": "uint256",
          "name": "",
          "type": "uint256"
        }
      ],
      "name": "blacklistedlist",
      "outputs": [
        {
          "internalType": "address",
          "name": "theAddress",
          "type": "address"
        }
      ],
      "stateMutability": "view",
      "type": "function"
    },
    {
      "inputs": [
        {
          "internalType": "address",
          "name": "_address",
          "type": "address"
        }
      ],
      "name": "delFromBlacklist",
      "outputs": [],
      "stateMutability": "nonpayable",
      "type": "function"
    },
    {
      "inputs": [
        {
          "internalType": "address",
          "name": "_address",
          "type": "address"
        }
      ],
      "name": "delFromWhitelist",
      "outputs": [],
      "stateMutability": "nonpayable",
      "type": "function"
    },
    {
      "inputs": [],
      "name": "getBlacklisted",
      "outputs": [
        {
          "components": [
            {
              "internalType": "address",
              "name": "theAddress",
              "type": "address"
            }
          ],
          "internalType": "struct Voting.Blacklist[]",
          "name": "",
          "type": "tuple[]"
        }
      ],
      "stateMutability": "view",
      "type": "function"
    },
    {
      "inputs": [],
      "name": "getQuestion",
      "outputs": [
        {
          "internalType": "string",
          "name": "",
          "type": "string"
        }
      ],
      "stateMutability": "view",
      "type": "function"
    },
    {
      "inputs": [],
      "name": "getSortedCount",
      "outputs": [
        {
          "internalType": "uint256[]",
          "name": "",
          "type": "uint256[]"
        }
      ],
      "stateMutability": "view",
      "type": "function"
    },
    {
      "inputs": [],
      "name": "getSortedDescriptions",
      "outputs": [
        {
          "internalType": "string[]",
          "name": "",
          "type": "string[]"
        }
      ],
      "stateMutability": "view",
      "type": "function"
    },
    {
      "inputs": [],
      "name": "getState",
      "outputs": [
        {
          "internalType": "string",
          "name": "",
          "type": "string"
        }
      ],
      "stateMutability": "view",
      "type": "function"
    },
    {
      "inputs": [],
      "name": "getStats",
      "outputs": [
        {
          "internalType": "string[]",
          "name": "",
          "type": "string[]"
        },
        {
          "internalType": "uint256[]",
          "name": "",
          "type": "uint256[]"
        }
      ],
      "stateMutability": "view",
      "type": "function"
    },
    {
      "inputs": [],
      "name": "getTypeQuestion",
      "outputs": [
        {
          "internalType": "bool",
          "name": "",
          "type": "bool"
        }
      ],
      "stateMutability": "view",
      "type": "function"
    },
    {
      "inputs": [],
      "name": "getWhitelisted",
      "outputs": [
        {
          "components": [
            {
              "internalType": "address",
              "name": "theAddress",
              "type": "address"
            }
          ],
          "internalType": "struct Voting.Whitelist[]",
          "name": "",
          "type": "tuple[]"
        }
      ],
      "stateMutability": "view",
      "type": "function"
    },
    {
      "inputs": [
        {
          "internalType": "address",
          "name": "_address",
          "type": "address"
        }
      ],
      "name": "isBlacklisted",
      "outputs": [
        {
          "internalType": "bool",
          "name": "",
          "type": "bool"
        }
      ],
      "stateMutability": "view",
      "type": "function"
    },
    {
      "inputs": [
        {
          "internalType": "address",
          "name": "_address",
          "type": "address"
        }
      ],
      "name": "isWhitelisted",
      "outputs": [
        {
          "internalType": "bool",
          "name": "",
          "type": "bool"
        }
      ],
      "stateMutability": "view",
      "type": "function"
    },
    {
      "inputs": [],
      "name": "nextState",
      "outputs": [],
      "stateMutability": "nonpayable",
      "type": "function"
    },
    {
      "inputs": [],
      "name": "owner",
      "outputs": [
        {
          "internalType": "address",
          "name": "",
          "type": "address"
        }
      ],
      "stateMutability": "view",
      "type": "function"
    },
    {
      "inputs": [
        {
          "internalType": "uint256",
          "name": "",
          "type": "uint256"
        }
      ],
      "name": "propositions",
      "outputs": [
        {
          "internalType": "string",
          "name": "description",
          "type": "string"
        },
        {
          "internalType": "uint256",
          "name": "voteCount",
          "type": "uint256"
        }
      ],
      "stateMutability": "view",
      "type": "function"
    },
    {
      "inputs": [],
      "name": "question",
      "outputs": [
        {
          "internalType": "string",
          "name": "description",
          "type": "string"
        },
        {
          "internalType": "bool",
          "name": "isYesNo",
          "type": "bool"
        }
      ],
      "stateMutability": "view",
      "type": "function"
    },
    {
      "inputs": [],
      "name": "questionState",
      "outputs": [
        {
          "internalType": "enum Voting.WorkflowStatus",
          "name": "",
          "type": "uint8"
        }
      ],
      "stateMutability": "view",
      "type": "function"
    },
    {
      "inputs": [],
      "name": "renounceOwnership",
      "outputs": [],
      "stateMutability": "nonpayable",
      "type": "function"
    },
    {
      "inputs": [],
      "name": "restart",
      "outputs": [],
      "stateMutability": "nonpayable",
      "type": "function"
    },
    {
      "inputs": [],
      "name": "sortProposals",
      "outputs": [
        {
          "components": [
            {
              "internalType": "string",
              "name": "description",
              "type": "string"
            },
            {
              "internalType": "uint256",
              "name": "voteCount",
              "type": "uint256"
            }
          ],
          "internalType": "struct Voting.Proposal[]",
          "name": "",
          "type": "tuple[]"
        }
      ],
      "stateMutability": "view",
      "type": "function"
    },
    {
      "inputs": [
        {
          "internalType": "address",
          "name": "newOwner",
          "type": "address"
        }
      ],
      "name": "transferOwnership",
      "outputs": [],
      "stateMutability": "nonpayable",
      "type": "function"
    },
    {
      "inputs": [
        {
          "internalType": "uint256",
          "name": "_proposalPosition",
          "type": "uint256"
        }
      ],
      "name": "vote",
      "outputs": [],
      "stateMutability": "nonpayable",
      "type": "function"
    },
    {
      "inputs": [
        {
          "internalType": "uint256",
          "name": "",
          "type": "uint256"
        }
      ],
      "name": "voterToOwnerAdress",
      "outputs": [
        {
          "internalType": "address",
          "name": "",
          "type": "address"
        }
      ],
      "stateMutability": "view",
      "type": "function"
    },
    {
      "inputs": [
        {
          "internalType": "uint256",
          "name": "",
          "type": "uint256"
        }
      ],
      "name": "voters",
      "outputs": [
        {
          "internalType": "bool",
          "name": "isRegistered",
          "type": "bool"
        },
        {
          "internalType": "bool",
          "name": "hasVoted",
          "type": "bool"
        },
        {
          "internalType": "uint256",
          "name": "votedProposalId",
          "type": "uint256"
        }
      ],
      "stateMutability": "view",
      "type": "function"
    },
    {
      "inputs": [
        {
          "internalType": "uint256",
          "name": "",
          "type": "uint256"
        }
      ],
      "name": "whitelistedlist",
      "outputs": [
        {
          "internalType": "address",
          "name": "theAddress",
          "type": "address"
        }
      ],
      "stateMutability": "view",
      "type": "function"
    },
    {
      "inputs": [
        {
          "internalType": "string",
          "name": "_question",
          "type": "string"
        },
        {
          "internalType": "bool",
          "name": "_yesno",
          "type": "bool"
        }
      ],
      "name": "writeQuestion",
      "outputs": [],
      "stateMutability": "nonpayable",
      "type": "function"
    }
  ],
  "bytecode": "0x6080604052600b805460ff1916905534801561001a57600080fd5b50338061004157604051631e4fbdf760e01b81526000600482015260240160405180910390fd5b61004a81610050565b506100a0565b600080546001600160a01b038381166001600160a01b0319831681178455604051919092169283917f8be0079c531659141344cd1fd0a4f28419497f9722a3daafe3b4186f6b6457e09190a35050565b611ec4806100af6000396000f3fe608060405234801561001057600080fd5b506004361061017a5760003560e01c80637d260bae116100d45780637d260bae146102ca5780638da5cb5b146102df5780639b372b2b146102f0578063a6c10de014610305578063b1cae9c91461032e578063b27183d214610341578063c59d484714610362578063ce3675ad14610378578063da58c7d914610380578063eb5f286b146103b0578063eff38f92146103c5578063f2fde38b146103cd578063f9e8e485146103e0578063fae26d33146103eb578063fe575a87146103fe57600080fd5b80630121b93f1461017f57806314007c6d1461019457806315bf71fe1461019c5780631865c57d146101af5780631ef3755d146101cd5780632fdae3c5146101d557806334b276d9146101e857806339159ade146101fb5780633af32abf1461020e5780633fad9ae01461024a57806345ac42e0146102605780634c0fa00f1461028057806367c30c8214610295578063715018a6146102af578063775b62b8146102b7575b600080fd5b61019261018d3660046117dd565b61042a565b005b61019261066e565b6101926101aa366004611898565b610760565b6101b76108ef565b6040516101c49190611934565b60405180910390f35b610192610a19565b6101926101e336600461194e565b610b7c565b6101926101f636600461198a565b610c54565b61019261020936600461198a565b610d0a565b61023a61021c36600461198a565b6001600160a01b031660009081526001602052604090205460ff1690565b60405190151581526020016101c4565b610252610dd1565b6040516101c49291906119b3565b61027361026e3660046117dd565b610e6c565b6040516101c491906119d7565b610288610e96565b6040516101c49190611a3d565b600b546102a29060ff1681565b6040516101c49190611a66565b610192610f55565b6102736102c53660046117dd565b610f67565b6102d2610f77565b6040516101c49190611a8e565b6000546001600160a01b0316610273565b6102f86111a0565b6040516101c49190611b04565b6102736103133660046117dd565b6003602052600090815260409020546001600160a01b031681565b61019261033c36600461198a565b611207565b61035461034f3660046117dd565b6112b5565b6040516101c4929190611b54565b61036a611371565b6040516101c4929190611bb1565b6102f861138c565b61039361038e3660046117dd565b6113e9565b6040805193151584529115156020840152908201526060016101c4565b6103b8611425565b6040516101c49190611bdf565b6101b76114d2565b6101926103db36600461198a565b611567565b60095460ff1661023a565b6101926103f936600461198a565b6115a5565b61023a61040c36600461198a565b6001600160a01b031660009081526002602052604090205460ff1690565b3360009081526001602081905260409091205460ff161515146104685760405162461bcd60e51b815260040161045f90611bf2565b60405180910390fd5b3360009081526002602052604090205460ff16156104985760405162461bcd60e51b815260040161045f90611bf2565b600080805b6007548110156104e157600081815260036020526040902054336001600160a01b03909116036104cf57809150600192505b806104d981611c3d565b91505061049d565b5081151560010361056057600781815481106104ff576104ff611c56565b6000918252602090912060029091020154610100900460ff1615156001036105605760405162461bcd60e51b81526020600482015260146024820152732b37bab99030bb32bd103232b530903b37ba329760611b604482015260640161045f565b6007805460408051606081018252600180825260208083018281528385018a8152928601875560009687529251600286027fa66cc928b5edb82af9bd49922954155ab7b0942694bea4ce44661d9a8736c68881018054955115156101000261ff00199315159390931661ffff19909616959095179190911790935590517fa66cc928b5edb82af9bd49922954155ab7b0942694bea4ce44661d9a8736c6899092019190915582845260039052822080546001600160a01b03191633179055600a8054919261062d83611c3d565b91905055506004848154811061064557610645611c56565b60009182526020822060016002909202010180549161066383611c3d565b919050555050505050565b61067661164e565b6000600b5460ff16600381111561068f5761068f611a50565b14801561069f575060095460ff16155b156106ba57600b80546001919060ff191682805b0217905550565b6000600b5460ff1660038111156106d3576106d3611a50565b1480156106e7575060095460ff1615156001145b1561070057600b80546002919060ff19166001836106b3565b6001600b5460ff16600381111561071957610719611a50565b0361073257600b80546002919060ff19166001836106b3565b6002600b5460ff16600381111561074b5761074b611a50565b0361075e57600b805460ff191660031790555b565b6008805461076d90611c6c565b1590506107d25760405162461bcd60e51b815260206004820152602d60248201527f496c206661757420642761626f7264207265636f6d6d656e636572206c65207160448201526c3ab2b9ba34b7b73730b4b9329760991b606482015260840161045f565b81516000036107f35760405162461bcd60e51b815260040161045f90611ca6565b60086107ff8382611d20565b506009805460ff191682151590811790915560ff1615156001036108eb57604080516080810182526003918101918252624f756960e81b606082015290815260006020820181905260048054600181018255915281516002909102600080516020611e4d833981519152019081906108779082611d20565b50602091820151600191820155604080516080810182526003918101918252622737b760e91b6060820152908152600092810183905260048054928301815590925281516002909102600080516020611e4d833981519152019081906108dd9082611d20565b506020820151816001015550505b5050565b6060806000600b5460ff16600381111561090b5761090b611a50565b0361094957505060408051808201909152601d81527f65746170652031203a204563726976657a206c61207175657374696f6e000000602082015290565b6001600b5460ff16600381111561096257610962611a50565b0361098657604051806060016040528060228152602001611e6d6022913992915050565b6002600b5460ff16600381111561099f5761099f611a50565b036109da57505060408051808201909152601a81527965746170652033203a20456e7472657a206c657320766f74657360301b602082015290565b6003600b5460ff1660038111156109f3576109f3611a50565b03610a1457604051806060016040528060218152602001611e0c6021913990505b919050565b610a2161164e565b604080516020810190915260008152600890610a3d9082611d20565b506009805460ff19169055610a54600460006116cb565b610a60600760006116ec565b600b805460ff19169055610a766005600061170d565b610a826006600061170d565b6000600a546001600160401b03811115610a9e57610a9e6117f6565b604051908082528060200260200182016040528015610ac7578160200160208202803683370190505b5090506000805b600754811015610b165780838381518110610aeb57610aeb611c56565b602090810291909101015281610b0081611c3d565b9250508080610b0e90611c3d565b915050610ace565b5060005b81811015610b725760036000848381518110610b3857610b38611c56565b602090810291909101810151825281019190915260400160002080546001600160a01b031916905580610b6a81611c3d565b915050610b1a565b50506000600a5550565b6001600b5460ff166003811115610b9557610b95611a50565b14610bdd5760405162461bcd60e51b815260206004820152601860248201527710d9481b89d95cdd081c185cc81b1948189bdb88195d185d60421b604482015260640161045f565b8051600003610bfe5760405162461bcd60e51b815260040161045f90611ca6565b6040805180820190915281815260006020820181905260048054600181018255915281516002909102600080516020611e4d83398151915201908190610c449082611d20565b5060208201518160010155505050565b610c5c61164e565b6001600160a01b038181166000818152600160208181526040808420805460ff19908116851790915560028352818520805490911690558051918201815293815260058054928301815590925290517f036b6384b5eca791c62761152d0c79bb0604c104a5fb6f4eb0703f3154bb3db090910180546001600160a01b031916919093161790915551600080516020611e2d83398151915290610cff9083906119d7565b60405180910390a150565b610d1261164e565b6001600160a01b0381166000908152600260205260408120805460ff191690555b600654811015610db357816001600160a01b031660068281548110610d5a57610d5a611c56565b6000918252602090912001546001600160a01b031603610da15760068181548110610d8757610d87611c56565b600091825260209091200180546001600160a01b03191690555b80610dab81611c3d565b915050610d33565b50600080516020611e2d83398151915281604051610cff91906119d7565b600880548190610de090611c6c565b80601f0160208091040260200160405190810160405280929190818152602001828054610e0c90611c6c565b8015610e595780601f10610e2e57610100808354040283529160200191610e59565b820191906000526020600020905b815481529060010190602001808311610e3c57829003601f168201915b5050506001909301549192505060ff1682565b60058181548110610e7c57600080fd5b6000918252602090912001546001600160a01b0316905081565b606080610ea1610f77565b9050600081516001600160401b03811115610ebe57610ebe6117f6565b604051908082528060200260200182016040528015610ef157816020015b6060815260200190600190039081610edc5790505b50905060005b8251811015610f4e57828181518110610f1257610f12611c56565b602002602001015160000151828281518110610f3057610f30611c56565b60200260200101819052508080610f4690611c3d565b915050610ef7565b5092915050565b610f5d61164e565b61075e600061167b565b60068181548110610e7c57600080fd5b60048054604080516020808402820181019092528281526060936000928490849084015b828210156110695783829060005260206000209060020201604051806040016040529081600082018054610fce90611c6c565b80601f0160208091040260200160405190810160405280929190818152602001828054610ffa90611c6c565b80156110475780601f1061101c57610100808354040283529160200191611047565b820191906000526020600020905b81548152906001019060200180831161102a57829003601f168201915b5050505050815260200160018201548152505081526020019060010190610f9b565b50505050905060005b61107d600184611ddf565b811015610f4e5760005b60016110938386611ddf565b61109d9190611ddf565b81101561118d57826110b0826001611df8565b815181106110c0576110c0611c56565b6020026020010151602001518382815181106110de576110de611c56565b602002602001015160200151101561117b57600083828151811061110457611104611c56565b602002602001015190508382600161111c9190611df8565b8151811061112c5761112c611c56565b602002602001015184838151811061114657611146611c56565b6020908102919091010152808461115e846001611df8565b8151811061116e5761116e611c56565b6020026020010181905250505b8061118581611c3d565b915050611087565b508061119881611c3d565b915050611072565b60606005805480602002602001604051908101604052809291908181526020016000905b828210156111fe57600084815260209081902060408051808401909152908401546001600160a01b031681528252600190920191016111c4565b50505050905090565b61120f61164e565b6001600160a01b0381811660008181526002602090815260408083208054600160ff1991821681179092558184528285208054909116905581519283018252938252600680549485018155909252517ff652222313e28459528d920b65115c16c04f3efc82aaedc97be59f3f377c0d3f90920180546001600160a01b031916929093169190911790915551600080516020611e2d83398151915290610cff9083906119d7565b600481815481106112c557600080fd5b90600052602060002090600202016000915090508060000180546112e890611c6c565b80601f016020809104026020016040519081016040528092919081815260200182805461131490611c6c565b80156113615780601f1061133657610100808354040283529160200191611361565b820191906000526020600020905b81548152906001019060200180831161134457829003601f168201915b5050505050908060010154905082565b60608061137c610e96565b611384611425565b915091509091565b6060600680548060200260200160405190810160405280929190818152602001600090828210156111fe57600084815260209081902060408051808401909152908401546001600160a01b031681528252600190920191016111c4565b600781815481106113f957600080fd5b60009182526020909120600290910201805460019091015460ff80831693506101009092049091169083565b606080611430610f77565b9050600081516001600160401b0381111561144d5761144d6117f6565b604051908082528060200260200182016040528015611476578160200160208202803683370190505b50905060005b8251811015610f4e5782818151811061149757611497611c56565b6020026020010151602001518282815181106114b5576114b5611c56565b6020908102919091010152806114ca81611c3d565b91505061147c565b6060600860000180546114e490611c6c565b80601f016020809104026020016040519081016040528092919081815260200182805461151090611c6c565b801561155d5780601f106115325761010080835404028352916020019161155d565b820191906000526020600020905b81548152906001019060200180831161154057829003601f168201915b5050505050905090565b61156f61164e565b6001600160a01b038116611599576000604051631e4fbdf760e01b815260040161045f91906119d7565b6115a28161167b565b50565b6115ad61164e565b6001600160a01b0381166000908152600160205260408120805460ff191690555b600554811015610db357816001600160a01b0316600582815481106115f5576115f5611c56565b6000918252602090912001546001600160a01b03160361163c576005818154811061162257611622611c56565b600091825260209091200180546001600160a01b03191690555b8061164681611c3d565b9150506115ce565b6000546001600160a01b0316331461075e573360405163118cdaa760e01b815260040161045f91906119d7565b600080546001600160a01b038381166001600160a01b0319831681178455604051919092169283917f8be0079c531659141344cd1fd0a4f28419497f9722a3daafe3b4186f6b6457e09190a35050565b50805460008255600202906000526020600020908101906115a2919061172b565b50805460008255600202906000526020600020908101906115a29190611753565b50805460008255906000526020600020908101906115a29190611774565b8082111561174f57600061173f8282611793565b506000600182015560020161172b565b5090565b5b8082111561174f57805461ffff1916815560006001820155600201611754565b5b8082111561174f5780546001600160a01b0319168155600101611775565b50805461179f90611c6c565b6000825580601f106117af575050565b601f0160209004906000526020600020908101906115a291905b8082111561174f57600081556001016117c9565b6000602082840312156117ef57600080fd5b5035919050565b634e487b7160e01b600052604160045260246000fd5b600082601f83011261181d57600080fd5b81356001600160401b0380821115611837576118376117f6565b604051601f8301601f19908116603f0116810190828211818310171561185f5761185f6117f6565b8160405283815286602085880101111561187857600080fd5b836020870160208301376000602085830101528094505050505092915050565b600080604083850312156118ab57600080fd5b82356001600160401b038111156118c157600080fd5b6118cd8582860161180c565b925050602083013580151581146118e357600080fd5b809150509250929050565b6000815180845260005b81811015611914576020818501810151868301820152016118f8565b506000602082860101526020601f19601f83011685010191505092915050565b60208152600061194760208301846118ee565b9392505050565b60006020828403121561196057600080fd5b81356001600160401b0381111561197657600080fd5b6119828482850161180c565b949350505050565b60006020828403121561199c57600080fd5b81356001600160a01b038116811461194757600080fd5b6040815260006119c660408301856118ee565b905082151560208301529392505050565b6001600160a01b0391909116815260200190565b6000815180845260208085019450848260051b860182860160005b85811015611a30578383038952611a1e8383516118ee565b98850198925090840190600101611a06565b5090979650505050505050565b60208152600061194760208301846119eb565b634e487b7160e01b600052602160045260246000fd5b6020810160048310611a8857634e487b7160e01b600052602160045260246000fd5b91905290565b60006020808301818452808551808352604092508286019150828160051b87010184880160005b83811015611af657888303603f1901855281518051878552611ad9888601826118ee565b918901519489019490945294870194925090860190600101611ab5565b509098975050505050505050565b6020808252825182820181905260009190848201906040850190845b81811015611b48578351516001600160a01b0316835260208301938501939250600101611b20565b50909695505050505050565b604081526000611b6760408301856118ee565b90508260208301529392505050565b600081518084526020808501945080840160005b83811015611ba657815187529582019590820190600101611b8a565b509495945050505050565b604081526000611bc460408301856119eb565b8281036020840152611bd68185611b76565b95945050505050565b6020815260006119476020830184611b76565b6020808252818101527f766f7573206e276574657320706173206175746f72697365206120766f746572604082015260600190565b634e487b7160e01b600052601160045260246000fd5b600060018201611c4f57611c4f611c27565b5060010190565b634e487b7160e01b600052603260045260246000fd5b600181811c90821680611c8057607f821691505b602082108103611ca057634e487b7160e01b600052602260045260246000fd5b50919050565b6020808252601190820152706c65206368616d7020657374207669646560781b604082015260600190565b601f821115611d1b57600081815260208120601f850160051c81016020861015611cf85750805b601f850160051c820191505b81811015611d1757828155600101611d04565b5050505b505050565b81516001600160401b03811115611d3957611d396117f6565b611d4d81611d478454611c6c565b84611cd1565b602080601f831160018114611d825760008415611d6a5750858301515b600019600386901b1c1916600185901b178555611d17565b600085815260208120601f198616915b82811015611db157888601518255948401946001909101908401611d92565b5085821015611dcf5787850151600019600388901b60f8161c191681555b5050505050600190811b01905550565b81810381811115611df257611df2611c27565b92915050565b80820180821115611df257611df2611c2756fe65746170652034203a204465636f757672657a206c657320726573756c74617473dc84e3a4c83602050e3865df792a4e6800211a79ac60db94e703a820ce8929248a35acfbc15ff81a39ae7d344fd709f28e8600b4aa8c65c6b64bfe7fe36bd19b65746170652032203a204563726976657a206c65732070726f706f736974696f6e73a264697066735822122024d6d94ddaec4c09d8a160211f37f580c92f213e02a159ce77fde925cd649f4164736f6c63430008140033",
  "linkReferences": {},
  "deployedLinkReferences": {}
}